:1000000072C00000A0C000009EC000009CC00000A4
:100010009AC0000098C0000096C0000094C0000084
:1000200092C0000090C000008EC000008CC0000094
:100030008AC0000088C0000086C0000084C00000A4
:1000400082C0000080C000007EC000007CC00000B4
:100050007AC0000078C0000076C00000E7C300004E
:1000600072C0000094C5000069C500006CC00000AB
:100070006AC0000068C0000066C0000064C00000E4
:1000800062C0000060C000005EC000005CC00000F4
:100090005AC0000058C0000056C0000054C0000004
:1000A00052C0000050C000004EC000004CC0000014
:1000B0004AC0000048C0000046C0000044C0000024
:1000C00042C0000040C000003EC000003CC0000034
:1000D0003AC0000038C0000036C0000034C0000044
:1000E00032C00000220611241FBECFEFD1E2DEBFD6
:1000F000CDBF00E00CBF12E0A0E0B2E0E4EBF2E123
:1001000000E00BBF02C007900D92A433B107D9F7EE
:1001100023E0A4E3B2E001C01D92A03DB207E1F7E5
:1001200010E0C3E7D0E000E006C021970109802F6E
:10013000FE010E943D09C237D10780E00807A9F7F8
:10014000BDD50C9458095CCFEF92FF920F931F938B
:10015000CF93DF93EC01909135029F5F292F277099
:100160002093350290FF02C090E801C090E021FD8D
:100170009064247009F0906220E1290FFE013C9602
:100180007E018FE0E80EF11C00E011E06191662332
:1001900029F070E0C801FCD76F5F01C060E0DF01AB
:1001A00014976C93322F369F030E30E0311D1124CB
:1001B000CF010797311103C0EC01188203C0315001
:1001C000EC013883662311F061506C93EE15FF0546
:1001D000E9F6DF91CF911F910F91FF90EF90089575
:1001E00080E991E00895E1E0F1E08081886080831A
:1001F00008950F931F93CF93DF93CDB7DEB7629728
:100200000FB6F894DEBF0FBECDBF8C01F901DC0143
:100210001C968C917A8369835C834B835E834D83C8
:1002200090819D8791819E8792819F87813021F463
:10023000CE01019689DF06C01C861B861A861986A8
:1002400018861F8283E0888B1A8A198AD801ED915B
:10025000FC910484F585E02DBE016F5F7F4FC801DE
:10026000199562960FB6F894DEBF0FBECDBFDF9131
:10027000CF911F910F9108950F931F93CF93DF9309
:10028000CDB7DEB762970FB6F894DEBF0FBECDBF15
:100290008C01F901DC011C968C917A8369835C8363
:1002A0004B835E834D8390819D8791819E87928150
:1002B0009F87813021F4CE01019646DF06C01C865F
:1002C0001B861A86198618861F82188A1A8A198A26
:1002D000D801ED91FC910484F585E02DBE016F5F9E
:1002E0007F4FC801199562960FB6F894DEBF0FBE16
:1002F000CDBFDF91CF911F910F91089580E090E0E5
:100300000895FC01858596850895CF93DF9300D0ED
:1003100000D0CDB7DEB7AB011C821D821E82DC018E
:10032000ED91FC910190F081E02D19821A821B82DF
:100330009E012F5F3F4FBE016C5F7F4F1995269640
:100340000FB6F894DEBF0FBECDBFDF91CF910895F9
:100350006F927F928F929F92AF92BF92CF92DF92D5
:10036000EF92FF920F931F93CF93DF933C01EB012A
:1003700044D4F30127853089621B730B6A30710501
:10038000B8F3F894E881F981809102018860509176
:100390000201577F50930201E9849E812E2D291B73
:1003A000922F2E83DF84AA81BB816C857D85FE849C
:1003B0006F5F7F5FF3943F814885BA84AB8410817F
:1003C00020E0C32E022F322F308111278894311163
:1003D000390F08F43FEF9195889460FD130F17953E
:1003E000889461FD130F1795889462FD130F17957C
:1003F000889463FD130F1795889464FD130F179568
:10040000889465FD130F1795889466FD130F179553
:10041000889467FD130F17958894232F6111212F5E
:100420009E0D122F002C80930201002C17FF509379
:10043000020131812227889400C000C0509302013C
:1004400031113C0D00C080930201002C16FF509327
:10045000020108F43FEFC194889400C000C050939B
:10046000020170FD230F00C080930201002C15FFD4
:10047000509302012795889471FD230F00C000C09E
:10048000509302012795889400C080930201002CAC
:1004900014FF5093020172FD230F2795889400C02A
:1004A00000C05093020173FD230F00C0809302012E
:1004B000002C13FF509302012795889474FD230F9D
:1004C00000C000C0509302012795889400C080931B
:1004D0000201002C12FF5093020175FD230F279596
:1004E000889400C000C05093020176FD230F00C025
:1004F00080930201002C11FF5093020127958894EC
:1005000077FD230F00C000C0509302012795889407
:1005100000C080930201002C10FF50930201132FA2
:100520007111122FCB0C00C000C05093020100C00B
:1005300000C080930201002C17FF5093020132810A
:100540002227889400C000C0509302013111340F5B
:1005500000C080930201002C16FF5093020108F4A2
:100560003FEFED0DF11D00C000C050930201F0FC03
:10057000230F00C080930201002C15FF509302014D
:1005800027958894F1FC230F00C000C0509302010E
:100590002795889400C080930201002C14FF50938B
:1005A0000201F2FC230F2795889400C000C05093ED
:1005B0000201F3FC230F00C080930201002C13FF03
:1005C0005093020127958894F4FC230F00C000C0CB
:1005D000509302012795889400C080930201002C5B
:1005E00012FF50930201F5FC230F2795889400C059
:1005F00000C050930201F6FC230F00C0809302015B
:10060000002C11FF5093020127958894F7FC230FCB
:1006100000C000C0509302012795889400C08093C9
:100620000201002C10FF50930201132FF110122F22
:10063000419500C000C0509302014A0D00C0002C3B
:1006400080930201002C17FF509302013081222772
:10065000889400C000C0509302013111390F00C0CE
:1006600080930201002C16FF5093020108F43FEF23
:100670009195889400C000C05093020160FD230F43
:1006800000C080930201002C15FF509302012795B2
:10069000889461FD230F00C000C05093020127958C
:1006A000889400C080930201002C14FF5093020133
:1006B00062FD230F2795889400C000C0509302016B
:1006C00063FD230F00C080930201002C13FF5093A1
:1006D00002012795889464FD230F00C000C0509349
:1006E00002012795889400C080930201002C12FF1C
:1006F0005093020165FD230F2795889400C000C028
:100700005093020166FD230F00C080930201002C6C
:1007100011FF509302012795889467FD230F00C0B5
:1007200000C0509302012795889400C08093020175
:10073000002C10FF50930201132F6111122F9E0DF8
:1007400000C000C050930201119709F06CCE4A819D
:100750005B8120EE31E0DA016CD5DC01CB01F4E005
:10076000B695A79597958795FA95D1F720E030E053
:10077000B901EAE94E9F040E611D5E9F600D711D77
:100780001124650F711D860F971FA11DB11D893E94
:1007900043E09407A105B10508F434C0885E934096
:1007A000A109B10942E0B695A795979587954A9515
:1007B000D1F747E0849F080E211D949F200D311D25
:1007C0001124290F311D6091340270E0860F971FAC
:1007D000820F931F40913B0250913C0260913D0279
:1007E00070913E02292F3327420F531F611D711D47
:1007F00040933B0250933C0260933D0270933E0253
:10080000809334027894F9D1F301708B6787DF917C
:10081000CF911F910F91FF90EF90DF90CF90BF90FD
:10082000AF909F908F907F906F9008951F920F923E
:100830000FB60F9211242F933F938F939F93AF93F3
:10084000BF9380913B0290913C02A0913D02B091F8
:100850003E023091360223E0230F2D3720F401961B
:10086000A11DB11D05C026E8230F0296A11DB11DD3
:100870002093360280933B0290933C02A0933D026A
:10088000B0933E028091370290913802A0913902D4
:10089000B0913A020196A11DB11D80933702909349
:1008A0003802A0933902B0933A02BF91AF919F9161
:1008B0008F913F912F910F900FBE0F901F90189521
:1008C0008FE392E065D0892BD9F38FE392E03EC0AD
:1008D000CF92DF92EF92FF920F931F93CF93DF930C
:1008E0006C017A018B01C0E0D0E0CE15DF0589F004
:1008F000D8016D918D01D601ED91FC910190F081AF
:10090000E02DC6011995892B11F47E0102C02196B4
:10091000ECCFC701DF91CF911F910F91FF90EF9026
:10092000DF90CF900895089580E090E00895FC0155
:10093000538D448D252F30E0842F90E0821B930B44
:10094000541710F0CF96089501970895FC01918DEA
:10095000828D981761F0828DDF01A80FB11D5D9621
:100960008C91928D9F5F9F73928F90E008958FEF8F
:100970009FEF0895FC01918D828D981731F0828D43
:10098000E80FF11D858D90E008958FEF9FEF08959A
:10099000FC01918D228D892F90E0805C9F4F821BFE
:1009A00091098F73992708958FE392E0F1DF21E099
:1009B000892B09F420E0822F0895FC01848DDF014A
:1009C000A80FB11DA35ABF4F2C91848D90E00196C2
:1009D0008F739927848FA689B7892C93A089B189B1
:1009E0008C9180648C93938D848D981306C00288BB
:1009F000F389E02D80818F7D80830895EF92FF92AF
:100A00000F931F93CF93DF93EC0181E0888F9B8D31
:100A10008C8D981305C0E889F989808185FD23C0F4
:100A2000F62E0B8D10E00F5F1F4F0F731127E02E76
:100A30008C8DE8120BC00FB607FCFACFE889F98954
:100A4000808185FFF5CFCE01B8DFF2CF8B8DFE011F
:100A5000E80FF11DE35AFF4FF0820B8FEA89FB8903
:100A60008081806207C0EE89FF896083E889F98907
:100A700080818064808381E090E0DF91CF911F913D
:100A80000F91FF90EF900895CF93DF93EC01888D45
:100A90008823C1F0EA89FB89808185FD05C0A8898A
:100AA000B9898C9186FD0EC00FB607FCF5CF808109
:100AB00085FFF2CFA889B9898C9185FFEDCFCE0152
:100AC0007CDFE8CFDF91CF91089580E090E0892B23
:100AD00019F06ADF811125C080E090E0892B41F098
:100AE00080E090E0892B21F00E94000081111CC061
:100AF00080E090E0892B41F080E090E0892B21F0AC
:100B00000E940000811113C080E090E0892BA1F0C9
:100B100080E090E0892B81F00E94000081110AC0E2
:100B200008950E940000D8CF0E940000E1CF0E94EB
:100B30000000EACF0C9400000895B6D31F920F92E4
:100B40000FB60F9211240BB60F922F933F934F9332
:100B50005F936F937F938F939F93AF93BF93EF9325
:100B6000FF938FE392E029DFFF91EF91BF91AF9167
:100B70009F918F917F916F915F914F913F912F91B5
:100B80000F900BBE0F900FBE0F901F9018951F92E5
:100B90000F920FB60F9211240BB60F922F938F93D3
:100BA0009F93EF93FF93E0914F02F0915002808169
:100BB000E0915502F091560282FD12C09081809121
:100BC00058028F5F8F7320915902821751F0E09184
:100BD0005802F0E0E15CFD4F958F8093580201C010
:100BE0008081FF91EF919F918F912F910F900BBE7C
:100BF0000F900FBE0F901F9018953FB7F8948091FB
:100C0000370290913802A0913902B0913A0226B58C
:100C1000A89B05C02F3F19F00196A11DB11D3FBF34
:100C2000BA2FA92F982F8827820F911DA11DB11DC2
:100C3000BC01CD0142E0660F771F881F991F4A95BE
:100C4000D1F70895EFE3F2E01382128288EE93E089
:100C5000A0E0B0E084839583A683B78386E292E028
:100C60009183808385EC90E09587848784EC90E085
:100C70009787868780EC90E0918B808B81EC90E069
:100C8000938B828B82EC90E0958B848B86EC90E04A
:100C9000978B868B118E128E138E148EE3ECF3E0FD
:100CA0008FEF808312821182148613868FEF9FEF5D
:100CB000DC0187839087A187B2870895CF93DF9364
:100CC00000D01F92CDB7DEB7789484B5826084BD22
:100CD00084B5816084BD85B5826085BD85B5816040
:100CE00085BD80916E00816080936E0010928100BE
:100CF0008091810082608093810080918100816079
:100D00008093810080918000816080938000809139
:100D1000B10084608093B1008091B00081608093C5
:100D2000B000809191008260809391008091910049
:100D30008160809391008091900081608093900009
:100D40008091A10082608093A1008091A1008160C8
:100D50008093A1008091A00081608093A000809189
:100D60002101826080932101809121018160809323
:100D700021018091200181608093200180917A007F
:100D8000846080937A0080917A00826080937A00F8
:100D900080917A00816080937A0080917A008068E7
:100DA00080937A001092C100E0914F02F0915002BE
:100DB00082E08083E0914B02F0914C021082E0913E
:100DC0004D02F0914E0291E0908310925702E09113
:100DD0005302F091540286E08083E0915102F09139
:100DE0005202808180618083E0915102F091520231
:100DF000808188608083E0915102F091520280816D
:100E000080688083E0915102F091520280818F7D51
:100E100080838091EF02811144C01092E102109210
:100E2000E0028FEF8093E4028093E5028093E60274
:100E30008093E7028093E8028093E9029093EA02AC
:100E40001092EC021092EB021092E3021092E20276
:100E50008091FD029091FE02892B31F48EED92E09B
:100E60009093FE028093FD02E091DC02F091DD029E
:100E7000309721F08EED92E0958384838EED92E0A1
:100E80009093DD028093DC021092EE021092ED024C
:100E900084E192E09093DF028093DE0281E0809310
:100EA000EF02E091DE02F091DF020480F581E02D97
:100EB0008EED92E0199583E093E09093E1028093A8
:100EC000E00280E490E09093EC028093EB02E091EA
:100ED000DE02F091DF020284F385E02D8EED92E0D8
:100EE0001995009721F19C0140E050E060E472E424
:100EF0008FE090E082D1722F632F0091C603109192
:100F0000C7032091C8033091C903872F962FDA01B8
:100F100080179107A207B30710F4D901C801809385
:100F2000C6039093C703A093C803B093C90388EE88
:100F3000282E83E0382EC4DC8F3F9105E1F700E0D6
:100F400010E0BEDC98012D5F3C4F7901D9018C93F4
:100F5000B7DCF7018183B4DCD70112968C930D5F67
:100F60001F4F003C110569F7F090C3038091C60341
:100F70009091C703A091C803B091C903892B8A2B14
:100F80008B2BE1F03ADE0091FF02109100032091DB
:100F9000010330910203DC01CB01801B910BA20BFA
:100FA000B30B0091C6031091C7032091C803309181
:100FB000C90380179107A207B307C0F21EDE609332
:100FC000FF02709300038093010390930203E0916A
:100FD000CE03F091CF03309759F04091CA0350915E
:100FE000CB036091CC037091CD038F2D1995F82E12
:100FF0000091FD021091FE024F2C512C612C712C9E
:101000000115110509F461C0F801F485FC83809194
:10101000C4039091C5038436910518F4D8011C9639
:101020001C92D801ED91FC91A280B38019821A82A2
:101030001B82F11015C0F8014585568562817381C8
:101040009E012F5F3F4FC801F5011995EC81D80132
:101050001C96EC931C9714960D911C911597D0CF6C
:10106000F80139969E012F5F3F4F690148013CE02E
:10107000830E911CDF011397EC902191EE20F1F08B
:101080002223E1F0822F90E0A0E0B0E09C01AD01CE
:101090002F5F3F4F4F4F5F4FC301B2016AD09B019B
:1010A000AC018E2D90E0A0E0B0E0BC01CD016F5FFF
:1010B0007F4F8F4F9F4F5DD0D6018C93BFEFCB1AE0
:1010C000DB0AE815F905B1F6B6CF8091FB029091E5
:1010D000FC029C012F5F3F4F3093FC022093FB02E8
:1010E00049970CF444C08FB7F89400913B021091DB
:1010F0003C0220913D0230913E028FBF8091FB0265
:101100009091FC02829DB001839D700D929D700DA7
:101110001124072E000C880B990BC090F702D09079
:10112000F802E090F902F090FA02A90198012C1956
:101130003D094E095F093FD03093C5032093C40396
:101140001092FC021092FB022FB7F89480913B02A0
:1011500090913C02A0913D02B0913E022FBF80933E
:10116000F7029093F802A093F902B093FA02ADDC73
:10117000E2CEDB018F939F9362D0BF91AF91A29F8C
:10118000800D911DA39F900DB29F900D1124089585
:1011900097FB072E16F4009406D077FD08D059D09F
:1011A00007FC05D03EF4909581959F4F089570956A
:1011B00061957F4F0895A1E21A2EAA1BBB1BFD016A
:1011C0000DC0AA1FBB1FEE1FFF1FA217B307E40726
:1011D000F50720F0A21BB30BE40BF50B661F771F7E
:1011E000881F991F1A9469F760957095809590955E
:1011F0009B01AC01BD01CF010895052E97FB16F4AC
:1012000000940FD057FD05D0D6DF07FC02D046F47E
:1012100008C050954095309521953F4F4F4F5F4FF7
:10122000089590958095709561957F4F8F4F9F4F52
:1012300008952BD0B7FF0895821B930B089525D0F6
:10124000A59F900DB49F900DA49F800D911D11241A
:101250000895AA1BBB1B51E107C0AA1FBB1FA617FD
:10126000B70710F0A61BB70B881F991F5A95A9F74F
:1012700080959095BC01CD010895EE0FFF1F881F4A
:101280008BBF0790F691E02D1994A29FB001B39FF8
:10129000C001A39F700D811D1124911DB29F700D7F
:1012A000811D1124911D089581E090E0F89400C003
:0412B000F894FFCFE0
:1012B400000000009D059D059D05850181017E01BD
:1012C400000000003C01F900F30085018101F000F9
:1012D400A80100000000FE04680497044405C80443
:0412E400A604BA049E
:00000001FF
