:100000000C9435000C945D000C945D000C945D0024
:100010000C945D000C945D000C945D000C945D00EC
:100020000C945D000C945D000C945D000C945D00DC
:100030000C945D000C945D000C945D000C945D00CC
:100040000C94FC040C945D000C94A5040C947F04A7
:100050000C945D000C945D000C945D000C945D00AC
:100060000C945D000C945D00930511241FBECFEF2E
:10007000D8E0DEBFCDBF11E0A0E0B1E0EEE5F1E1F8
:1000800002C005900D92A433B107D9F722E0A4E392
:10009000B1E001C01D92A03DB207E1F710E0C5E359
:1000A000D0E004C02197FE010E949308C433D10719
:1000B000C9F70E94CF050C94AD080C94000080E9AC
:1000C00091E00895569A089580E090E00895FC012B
:1000D000858596850895CF93DF9300D000D000D01A
:1000E000CDB7DEB7AB011C821D821E82DC01ED9113
:1000F000FC910190F081E02D19821A821B829E01F1
:100100002F5F3F4FBE016C5F7F4F099526960FB65C
:10011000F894DEBF0FBECDBFDF91CF9108954F920F
:100120005F926F927F928F92AF92BF92CF92EF9237
:10013000FF920F931F93CF93DF933C01EB010E943B
:10014000D704F30127853089621B730B6A30710570
:10015000B0F3F894E881F9815BB150648BB18F7B87
:100160008BB969859E81262F291B922F2E83BF84F0
:100170004A805B807C85FD84EE847F5FF394E3940A
:100180003F814885AA84CB841081D20120E0C32F0F
:10019000022F322F3081112788943111390F08F442
:1001A0003FEF9195889470FD130F1795889471FD1A
:1001B000130F1795889472FD130F1795889473FD8C
:1001C000130F1795889474FD130F1795889475FD78
:1001D000130F1795889476FD130F1795889477FD64
:1001E000130F17958894232F7111212F960F122F1B
:1001F000002C5BB900C017FF8BB93181222788948E
:1002000000C000C0002C8BB931113C0F00C0002C85
:100210005BB900C016FF8BB908F43FEFC195889415
:1002200000C000C0002C8BB9F0FC230F00C0002CD4
:100230005BB900C015FF8BB927958894F1FC230F9B
:1002400000C000C0002C8BB92795889400C0002CFA
:100250005BB900C014FF8BB9F2FC230F279588947B
:1002600000C000C0002C8BB9F3FC230F00C0002C91
:100270005BB900C013FF8BB927958894F4FC230F5A
:1002800000C000C0002C8BB92795889400C0002CBA
:100290005BB900C012FF8BB9F5FC230F279588943A
:1002A00000C000C0002C8BB9F6FC230F00C0002C4E
:1002B0005BB900C011FF8BB927958894F7FC230F19
:1002C00000C000C0002C8BB92795889400C0002C7A
:1002D0005BB900C010FF8BB9132FF110122FCA0D9C
:1002E00000C000C0002C8BB900C000C0002C5BB95E
:1002F00000C017FF8BB932812227889400C000C04C
:10030000002C8BB93111340F00C0002C5BB900C038
:1003100016FF8BB908F43FEFEB0DF11D00C000C0D4
:10032000002C8BB9E0FC230F00C0002C5BB900C08F
:1003300015FF8BB927958894E1FC230F00C000C0FE
:10034000002C8BB92795889400C0002C5BB900C0A5
:1003500014FF8BB9E2FC230F2795889400C000C0DE
:10036000002C8BB9E3FC230F00C0002C5BB900C04C
:1003700013FF8BB927958894E4FC230F00C000C0BD
:10038000002C8BB92795889400C0002C5BB900C065
:1003900012FF8BB9E5FC230F2795889400C000C09D
:1003A000002C8BB9E6FC230F00C0002C5BB900C009
:1003B00011FF8BB927958894E7FC230F00C000C07C
:1003C000002C8BB92795889400C0002C5BB900C025
:1003D00010FF8BB9132FE110122F419500C000C000
:1003E000002C8BB94C0D00C000C05BB900C017FFDA
:1003F0008BB930812227889400C000C0002C8BB9B3
:100400003111390F00C0002C5BB900C016FF8BB949
:1004100008F43FEF9195889400C000C0002C8BB980
:1004200070FD230F00C0002C5BB900C015FF8BB915
:100430002795889471FD230F00C000C0002C8BB954
:100440002795889400C0002C5BB900C014FF8BB9BD
:1004500072FD230F2795889400C000C0002C8BB933
:1004600073FD230F00C0002C5BB900C013FF8BB9D4
:100470002795889474FD230F00C000C0002C8BB911
:100480002795889400C0002C5BB900C012FF8BB97F
:1004900075FD230F2795889400C000C0002C8BB9F0
:1004A00076FD230F00C0002C5BB900C011FF8BB993
:1004B0002795889477FD230F00C000C0002C8BB9CE
:1004C0002795889400C0002C5BB900C010FF8BB941
:1004D000132F7111122F960F00C000C0002C8BB982
:1004E000119709F086CE20EE31E0D2010E946D080E
:1004F000DC01CB01F4E0B695A79597958795FA9521
:10050000D1F720E030E0A9016AE9469E040C411DC4
:10051000569E400D511D1124450D511D840F951FF0
:10052000A11DB11D893E43E09407A105B10508F462
:1005300034C0885E9340A109B10942E0B695A79501
:10054000979587954A95D1F747E0849F080E211D1E
:10055000949F200D311D1124290F311D609134010C
:1005600070E0860F971F820F931F409135015091C5
:1005700036016091370170913801292F3327420FDE
:10058000531F611D711D40933501509336016093D7
:100590003701709338018093340178940E94D70416
:1005A000F301708B6787DF91CF911F910F91FF90BF
:1005B000EF90CF90BF90AF908F907F906F905F90B3
:1005C0004F9008950F931F93CF93DF93CDB7DEB76E
:1005D00062970FB6F894DEBF0FBECDBF8C01F90154
:1005E000DC011C968C917A8369835C834B835E83E8
:1005F0004D8390819D8791819E8792819F878130D5
:1006000029F4CE0101960E94460506C01C861B8671
:100610001A86198618861F8283E0888B1A8A198A9F
:10062000D801ED91FC910484F585E02DBE016F5F4A
:100630007F4FC801099562960FB6F894DEBF0FBED2
:10064000CDBFDF91CF911F910F9108950F931F930D
:10065000CF93DF93CDB7DEB762970FB6F894DEBFC6
:100660000FBECDBF8C01F901DC011C968C917A8301
:1006700069835C834B835E834D8390819D879181E9
:100680009E8792819F87813029F4CE0101960E9436
:10069000460506C01C861B861A86198618861F8288
:1006A000188A1A8A198AD801ED91FC910484F5857B
:1006B000E02DBE016F5F7F4FC801099562960FB6AE
:1006C000F894DEBF0FBECDBFDF91CF911F910F9188
:1006D000089589E391E00E94D303892BD1F389E344
:1006E00091E00C94B103CF92DF92EF92FF920F93BF
:1006F0001F93CF93DF936C017A018B01C0E0D0E0B0
:10070000CE15DF0589F0D8016D918D01D601ED91EF
:10071000FC910190F081E02DC6010995892B11F41F
:100720007E0102C02196ECCFC701DF91CF911F91CE
:100730000F91FF90EF90DF90CF900895089580E0A3
:1007400090E00895FC01538D448D252F30E0842FD7
:1007500090E0821B930B541710F0CF9608950197E9
:100760000895FC01918D828D981761F0828DDF01D3
:10077000A80FB11D5D968C91928D9F5F9F73928F94
:1007800090E008958FEF9FEF0895FC01918D828D89
:10079000981731F0828DE80FF11D858D90E0089556
:1007A0008FEF9FEF0895FC01918D228D892F90E0AE
:1007B000805C9F4F821B91098F739927089589E36D
:1007C00091E00E94D30321E0892B09F420E0822FDD
:1007D0000895FC01848DDF01A80FB11DA35ABF4FFE
:1007E0002C91848D90E001968F739927848FA68930
:1007F000B7892C93A089B1898C9180648C93938D57
:10080000848D981306C00288F389E02D80818F7D46
:1008100080830895EF92FF920F931F93CF93DF93FE
:10082000EC0181E0888F9B8D8C8D981305C0E88941
:10083000F989808185FD24C0F62E0B8D10E00F5FB5
:100840001F4F0F731127E02E8C8DE8120CC00FB6CE
:1008500007FCFACFE889F989808185FFF5CFCE01C1
:100860000E94E903F1CF8B8DFE01E80FF11DE35AE1
:10087000FF4FF0820B8FEA89FB898081806207C07D
:10088000EE89FF896083E889F989808180648083AB
:1008900081E090E0DF91CF911F910F91FF90EF9059
:1008A0000895CF93DF93EC01888D8823C9F0EA89FE
:1008B000FB89808185FD05C0A889B9898C9186FD59
:1008C0000FC00FB607FCF5CF808185FFF2CFA88956
:1008D000B9898C9185FFEDCFCE010E94E903E7CF66
:1008E000DF91CF91089580E090E0892B29F00E945C
:1008F000DF0381110C94000008950E94A8081F9244
:100900000F920FB60F9211242F933F934F935F9343
:100910006F937F938F939F93AF93BF93EF93FF93C7
:1009200089E391E00E94E903FF91EF91BF91AF91BC
:100930009F918F917F916F915F914F913F912F91F7
:100940000F900FBE0F901F9018951F920F920FB629
:100950000F9211242F938F939F93EF93FF93E09126
:100960004901F0914A018081E0914F01F0915001DD
:1009700082FD12C09081809152018F5F8F73209110
:100980005301821751F0E0915201F0E0E75CFE4F15
:10099000958F8093520101C08081FF91EF919F91CB
:1009A0008F912F910F900FBE0F901F9018953FB70A
:1009B000F8948091D8019091D901A091DA01B09179
:1009C000DB0126B5A89B05C02F3F19F00196A11D9C
:1009D000B11D3FBFBA2FA92F982F8827820F911DD5
:1009E000A11DB11DBC01CD0142E0660F771F881F1C
:1009F000991F4A95D1F708951F920F920FB60F9243
:100A000011242F933F938F939F93AF93BF93809124
:100A1000350190913601A0913701B09138013091A4
:100A2000D70123E0230F2D3720F40196A11DB11D1E
:100A300005C026E8230F0296A11DB11D2093D70102
:100A40008093350190933601A0933701B09338011C
:100A50008091D8019091D901A091DA01B091DB0188
:100A60000196A11DB11D8093D8019093D901A09347
:100A7000DA01B093DB01BF91AF919F918F913F91CC
:100A80002F910F900FBE0F901F901895EF92FF922D
:100A90000F931F93CF93DF93EC019091D6019F5F4B
:100AA000292F27702093D60190FF02C090E801C043
:100AB00090E021FD9064247009F0906220E1290FFC
:100AC000FE013C967E018FE0E80EF11C00E011E093
:100AD0006191662331F070E0C8010E9418086F5FD1
:100AE00001C060E0DF0114976C93322F369F030E34
:100AF00030E0311D1124CF010797311103C0EC0103
:100B0000188203C03150EC013883662311F0615024
:100B10006C93EE15FF05E1F6DF91CF911F910F91D8
:100B2000FF90EF900895E9E3F1E01382128288EEDE
:100B300093E0A0E0B0E084839583A683B78386E248
:100B400091E09183808385EC90E09587848784ECA5
:100B500090E09787868780EC90E0918B808B81EC8A
:100B600090E0938B828B82EC90E0958B848B86EC6B
:100B700090E0978B868B118E128E138E148EE3EC81
:100B8000F2E08FEF808312821182148613868FEF3A
:100B90009FEFDC0187839087A187B2870895CF9369
:100BA000DF9300D000D0CDB7DEB7789484B58260F3
:100BB00084BD84B5816084BD85B5826085BD85B501
:100BC000816085BD80916E00816080936E0010927F
:100BD00081008091810082608093810080918100FA
:100BE000816080938100809180008160809380008B
:100BF0008091B10084608093B1008091B0008160E9
:100C00008093B00080917A00846080937A00809114
:100C10007A00826080937A0080917A00816080936C
:100C20007A0080917A00806880937A001092C100E7
:100C3000E0914901F0914A0182E08083E091450111
:100C4000F09146011082E0914701F091480191E056
:100C5000908310925101E0914D01F0914E0186E098
:100C60008083E0914B01F0914C0180818061808311
:100C7000E0914B01F0914C01808188608083E0918C
:100C80004B01F0914C01808180688083E0914B01A1
:100C9000F0914C0180818F7D80838091EF018111E3
:100CA00044C01092E1011092E0018FEF8093E401C3
:100CB0008093E5018093E6018093E7018093E8014A
:100CC0008093E9019093EA011092EC011092EB01FC
:100CD0001092E3011092E2018091FD019091FE01DA
:100CE000892B31F48EED91E09093FE018093FD010C
:100CF000E091DC01F091DD01309721F08EED91E083
:100D0000958384838EED91E09093DD018093DC01E7
:100D10001092EE011092ED0184E191E09093DF01D9
:100D20008093DE0181E08093EF01E091DE01F0919C
:100D3000DF010480F581E02D8EED91E0099583E0DF
:100D400092E09093E1018093E00180E490E0909341
:100D5000EC018093EB01E091DE01F091DF01028470
:100D6000F385E02D8EED91E00995009729F19C0126
:100D700040E050E060E472E48FE090E00E944E08B2
:100D8000722F632F0091C6021091C7022091C802F2
:100D90003091C902872F962FDA0180179107A20799
:100DA000B30710F4D901C8018093C6029093C7021B
:100DB000A093C802B093C90288EE282E83E0382E93
:100DC0000E9469038F3F9105D9F700E010E00E946F
:100DD000690398012D5F3D4F7901D9018C930E94E1
:100DE0006903F70181830E946903D70112968C93EE
:100DF0000D5F1F4F003C110551F7F090C302809129
:100E0000C6029091C702A091C802B091C902892B75
:100E10008A2B8B2BE9F00E94D7040091FF011091DF
:100E200000022091010230910202DC01CB01801B03
:100E3000910BA20BB30B0091C6021091C702209137
:100E4000C8023091C90280179107A207B307B8F210
:100E50000E94D7046093FF01709300028093010207
:100E600090930202E091CE02F091CF02309759F0B8
:100E70004091CA025091CB026091CC027091CD0298
:100E80008F2D0995F82E0091FD011091FE014F2C38
:100E9000512C612C712C0115110509F463C0F80166
:100EA000F485FC838091C4029091C502843691053B
:100EB00018F4D8011C961C92D801ED91FC91A280E7
:100EC000B38019821A821B82F11015C0F801458582
:100ED0005685628173819E012F5F3F4FC801F501E6
:100EE0000995EC81D8011C96EC931C9714960D91F2
:100EF0001C911597D0CFF80139969E012F5F3F4F77
:100F0000690148013CE0830E911CDF011397EC90CE
:100F10002191EE2001F12223F1F0822F90E0A0E058
:100F2000B0E09C01AD012F5F3F4F4F4F5F4FC301BA
:100F3000B2010E9408089B01AC018E2D90E0A0E058
:100F4000B0E0BC01CD016F5F7F4F8F4F9F4F0E947C
:100F50000808D6018C93BFEFCB1ADB0AE815F90518
:100F6000A1F6B4CF8091FB019091FC019C012F5F11
:100F70003F4F3093FC012093FB0149970CF445C08F
:100F80008FB7F89400913501109136012091370107
:100F9000309138018FBF8091FB019091FC01829DBF
:100FA000B001839D700D929D700D1124072E000CD1
:100FB000880B990BC090F701D090F801E090F901EF
:100FC000F090FA01A90198012C193D094E095F0919
:100FD0000E942C083093C5022093C4021092FC0199
:100FE0001092FB012FB7F894809135019091360152
:100FF000A0913701B09138012FBF8093F7019093F2
:10100000F801A093F901B093FA010E947304D8CEBD
:10101000DB018F939F930E947408BF91AF91A29FB1
:10102000800D911DA39F900DB29F900D11240895E6
:1010300097FB072E16F4009407D077FD09D00E9485
:101040007F0807FC05D03EF4909581959F4F089549
:10105000709561957F4F0895A1E21A2EAA1BBB1BC4
:10106000FD010DC0AA1FBB1FEE1FFF1FA217B30774
:10107000E407F50720F0A21BB30BE40BF50B661F8A
:10108000771F881F991F1A9469F76095709580954E
:1010900090959B01AC01BD01CF010895052E97FBF2
:1010A0001EF400940E94650857FD07D00E942C088A
:1010B00007FC03D04EF40C9465085095409530958C
:1010C00021953F4F4F4F5F4F0895909580957095B4
:1010D00061957F4F8F4F9F4F08950E949908B7FFEA
:1010E0000895821B930B08950E949908A59F900D67
:1010F000B49F900DA49F800D911D11240895AA1BEB
:10110000BB1B51E107C0AA1FBB1FA617B70710F0F2
:10111000A61BB70B881F991F5A95A9F78095909524
:10112000BC01CD010895EE0FFF1F0590F491E02D55
:101130000994A29FB001B39FC001A39F700D811DB0
:101140001124911DB29F700D811D1124911D0895D0
:0E11500081E090E0F8940C94AD08F894FFCF85
:10115E00000000007D047D047D046B0067006400C8
:10116E00000000002603E20262006B0067005F00D1
:10117E008F00000000000A047303A2035104D3037E
:04118E00B103C503E1
:00000001FF
