:100000000C9490000C94B8000C94B8000C94B800B8
:100010000C94B8000C94B8000C94B8000C94B80080
:100020000C94B8000C94B8000C9426090C94CF05DD
:100030000C94B8000C94B8000C94B8000C94B80060
:100040000C94B8000C94B8000C94B8000C94B80050
:100050000C94B8000C94B8000C94B8000C942408CC
:100060000C94B8000C94B8000C94B8000C94B80030
:100070000C94B8000C94B8000C94B8000C94B80020
:100080000C94B8000C94B8000C94B8000C94B80010
:100090000C94B8000C94B8000C94B8000C94B80000
:1000A0000C94B8000C94B8000C94B800080B000233
:1000B0000202010009040000010202000005240000
:1000C0001001052401010104240206052406000193
:1000D0000705810310004009040100020A00000026
:1000E00007050202400000070583024000000403E8
:1000F000090412010002EF02014041233780000190
:100100000102030141726475696E6F204C4C43001B
:1001100041726475696E6F204D6963726F00980952
:1001200011241FBECFEFDAE0DEBFCDBF11E0A0E0AB
:10013000B1E0EEE8F9E102C005900D92A834B107F4
:10014000D9F722E0A8E4B1E001C01D92AD3AB207B0
:10015000E1F710E0C0E9D0E004C02197FE010E9461
:10016000AB0CCF38D107C9F70E94BB090C94C50C62
:100170000C94000080E991E00895579A089580E07A
:1001800090E00895FC01858596850895CF93DF93CF
:1001900000D000D000D0CDB7DEB7AB011C821D82ED
:1001A0001E82DC01ED91FC910190F081E02D19821D
:1001B0001A821B829E012F5F3F4FBE016C5F7F4FF3
:1001C000099526960FB6F894DEBF0FBECDBFDF911E
:1001D000CF9108954F925F926F927F928F92AF92DC
:1001E000BF92CF92EF92FF920F931F93CF93DF9323
:1001F0003C01EB010E94FF07F30127853089621B58
:10020000730B6A307105B0F3F894E881F9815BB142
:1002100050688BB18F778BB969859E81262F291BFA
:10022000922F2E83BF844A805B807C85FD84EE8480
:100230007F5FF394E3943F814885AA84CB84108147
:10024000D20120E0C32F022F322F30811127889452
:100250003111390F08F43FEF9195889470FD130F19
:100260001795889471FD130F1795889472FD130FDD
:100270001795889473FD130F1795889474FD130FC9
:100280001795889475FD130F1795889476FD130FB5
:100290001795889477FD130F17958894232F711164
:1002A000212F960F122F002C5BB900C017FF8BB9BE
:1002B00031812227889400C000C0002C8BB93111F5
:1002C0003C0F00C0002C5BB900C016FF8BB908F4CE
:1002D0003FEFC195889400C000C0002C8BB9F0FCA2
:1002E000230F00C0002C5BB900C015FF8BB9279508
:1002F0008894F1FC230F00C000C0002C8BB9279517
:10030000889400C0002C5BB900C014FF8BB9F2FCCC
:10031000230F2795889400C000C0002C8BB9F3FCF4
:10032000230F00C0002C5BB900C013FF8BB92795C9
:100330008894F4FC230F00C000C0002C8BB92795D3
:10034000889400C0002C5BB900C012FF8BB9F5FC8B
:10035000230F2795889400C000C0002C8BB9F6FCB1
:10036000230F00C0002C5BB900C011FF8BB927958B
:100370008894F7FC230F00C000C0002C8BB9279590
:10038000889400C0002C5BB900C010FF8BB9132FFC
:10039000F110122FCA0D00C000C0002C8BB900C094
:1003A00000C0002C5BB900C017FF8BB93281222737
:1003B000889400C000C0002C8BB93111340F00C0EC
:1003C000002C5BB900C016FF8BB908F43FEFEB0DB2
:1003D000F11D00C000C0002C8BB9E0FC230F00C051
:1003E000002C5BB900C015FF8BB927958894E1FC00
:1003F000230F00C000C0002C8BB92795889400C043
:10040000002C5BB900C014FF8BB9E2FC230F2795C9
:10041000889400C000C0002C8BB9E3FC230F00C0FF
:10042000002C5BB900C013FF8BB927958894E4FCBE
:10043000230F00C000C0002C8BB92795889400C002
:10044000002C5BB900C012FF8BB9E5FC230F279588
:10045000889400C000C0002C8BB9E6FC230F00C0BC
:10046000002C5BB900C011FF8BB927958894E7FC7D
:10047000230F00C000C0002C8BB92795889400C0C2
:10048000002C5BB900C010FF8BB9132FE110122FA5
:10049000419500C000C0002C8BB94C0D00C000C0BD
:1004A0005BB900C017FF8BB930812227889400C048
:1004B00000C0002C8BB93111390F00C0002C5BB982
:1004C00000C016FF8BB908F43FEF9195889400C0E7
:1004D00000C0002C8BB970FD230F00C0002C5BB94D
:1004E00000C015FF8BB92795889471FD230F00C0BC
:1004F00000C0002C8BB92795889400C0002C5BB9F4
:1005000000C014FF8BB972FD230F2795889400C09B
:1005100000C0002C8BB973FD230F00C0002C5BB909
:1005200000C013FF8BB92795889474FD230F00C07A
:1005300000C0002C8BB92795889400C0002C5BB9B3
:1005400000C012FF8BB975FD230F2795889400C05A
:1005500000C0002C8BB976FD230F00C0002C5BB9C6
:1005600000C011FF8BB92795889477FD230F00C039
:1005700000C0002C8BB92795889400C0002C5BB973
:1005800000C010FF8BB9132F7111122F960F00C0EE
:1005900000C0002C8BB9119709F086CE20EE31E017
:1005A000D2010E94850CDC01CB01F4E0B695A79541
:1005B00097958795FA95D1F720E030E0A9016AE98F
:1005C000469E040C411D569E400D511D1124450DA3
:1005D000511D840F951FA11DB11D893E43E0940755
:1005E000A105B10508F434C0885E9340A109B109A2
:1005F00042E0B695A795979587954A95D1F747E03C
:10060000849F080E211D949F200D311D1124290F58
:10061000311D6091480170E0860F971F820F931F74
:1006200040915701509158016091590170915A01C0
:10063000292F3327420F531F611D711D409357010E
:10064000509358016093590170935A018093480167
:1006500078940E94FF07F301708B6787DF91CF9139
:100660001F910F91FF90EF90CF90BF90AF908F9020
:100670007F906F905F904F9008950F931F93CF934B
:10068000DF93CDB7DEB762970FB6F894DEBF0FBE2B
:10069000CDBF8C01F901DC011C968C917A836983B2
:1006A0005C834B835E834D8390819D8791819E8780
:1006B00092819F87813029F4CE0101960E946E08B5
:1006C00006C01C861B861A86198618861F82188A01
:1006D0001A8A198AD801ED91FC910484F585E02DE0
:1006E000BE016F5F7F4FC801099562960FB6F894FF
:1006F000DEBF0FBECDBFDF91CF911F910F91089547
:100700000F931F93CF93DF93CDB7DEB762970FB6EA
:10071000F894DEBF0FBECDBF8C01F901DC011C9641
:100720008C917A8369835C834B835E834D83908154
:100730009D8791819E8792819F87813029F4CE0188
:1007400001960E946E0806C01C861B861A861986B2
:1007500018861F8283E0888B1A8A198AD801ED9146
:10076000FC910484F585E02DBE016F5F7F4FC801C9
:10077000099562960FB6F894DEBF0FBECDBFDF912C
:10078000CF911F910F9108958DE591E00E94B904DA
:10079000892BD1F38DE591E00C94B1054091510185
:1007A0005091520120914F0130915001421753074F
:1007B000B4F49091E8009570E1F39091E80092FD17
:1007C00019C08093F10080915101909152010196DE
:1007D0008F739927892B19F48EEF8093E80080910D
:1007E00051019091520101969093520180935101D1
:1007F00081E0089580E00895CF92DF92EF92FF921A
:100800000F931F93CF93DF931F92CDB7DEB7182FAF
:10081000062FE42E862F880F8E5F99830E94CE03C9
:1008200083E00E94CE03F12EC12E9981D92E8C2D0A
:100830008F19801798F4F601E7FE02C0849101C079
:1008400080810E94CE03182F80E00E94CE03812376
:10085000FFEFCF1ADF0A8111EACF01C081E00F90CC
:10086000DF91CF911F910F91FF90EF90DF90CF908C
:100870000895DF92EF92FF920F931F93CF93DF9330
:10088000D82E8A017B01E40EF51EEB01CE15DF05A3
:1008900071F0D7FE03C0FE01849101C088810E94DF
:1008A000CE0321968111F2CF8FEF9FEF01C0C801D7
:1008B000DF91CF911F910F91FF90EF90DF900895FE
:1008C000615030F02091F100FC0120830196F8CFB7
:1008D000289A84E680935B010895CF92DF92EF928D
:1008E000FF920F931F93CF93DF936C017A018B01DB
:1008F000C0E0D0E0CE15DF0589F0D8016D918D0103
:10090000D601ED91FC910190F081E02DC601099591
:10091000892B11F47E0102C02196ECCFC701DF9133
:10092000CF911F910F91FF90EF90DF90CF9008959E
:10093000CF93DF931F92CDB7DEB76983DC01ED91D2
:10094000FC910280F381E02D41E050E0BE016F5F39
:100950007F4F09950F90DF91CF91089583E08093A9
:10096000E9008091F200882319F08AE38093E8007F
:100970000895FC018485958597FD0BC09FB7F89479
:1009800082E08093E9008091F2009FBF90E00196A1
:1009900008959FB7F89482E08093E9008091F20077
:1009A0009FBF90E00895089580E090E008950F9330
:1009B0001F93CF93DF931F92CDB7DEB782E0898379
:1009C00042E450E06CEA70E080E80E9439040E9442
:1009D0001209DC0112960D911C9113970115110556
:1009E00069F0D801ED91FC910280F381E02DBE0108
:1009F0006F5F7F4FC801099597FF07C089810F90EE
:100A0000DF91CF911F910F910895F8010085118515
:100A1000E5CF8F929F92AF92BF92CF92DF92EF92EB
:100A2000FF920F931F93CF93DF936C015B017A01C9
:100A300080910B01882309F456C080915C018823C2
:100A400009F451C08091550180FF05C08091E000FC
:100A500082608093E000E70110E00AEF83E0882ED7
:100A60009AE3992E2097B1F10E940109811105C0E6
:100A70000150C9F10E94E708F5CF282F30E0C217D6
:100A8000D3070CF48C2F4FB7F8948092E900909123
:100A9000E80095FF1DC0282F30E0C21BD30BF501E5
:100AA000982F915020F081918093F100FACFA20EFF
:100AB000B31E112319F09092E80009C08091E8005C
:100AC00085FD06C09092E80011E0209709F010E043
:100AD0004FBFC8CF1111C8CF5D9A84E680935301F0
:100AE0001E141F0444F081E090E0F601938382839A
:100AF00080E090E001C0C701DF91CF911F910F917D
:100B0000FF90EF90DF90CF90BF90AF909F908F902D
:100B100008950E94010990E008950F931F93CF93C9
:100B2000DF931F92CDB7DEB78C01FC0184859585DC
:100B300097FF0EC0CE0101960E94BD08019719F4DF
:100B4000298130E002C02FEF3FEFF801358724877D
:100B5000F801848595850F90DF91CF911F910F91BA
:100B60000895CF93DF931F92CDB7DEB7FC01848544
:100B7000958597FD05C02FEF3FEF358724870BC084
:100B8000CE0101960E94BD08019719F4898190E079
:100B900002C08FEF9FEF0F90DF91CF9108951F92CA
:100BA0000F920FB60F921124CF92DF92EF92FF9225
:100BB0000F931F932F933F934F935F936F937F9365
:100BC0008F939F93AF93BF93EF93FF93CF93DF9355
:100BD000CDB7DEB76C97DEBFCDBF1092E900809134
:100BE000E80083FFEDC168E0CE0145960E946004F5
:100BF00082EF8093E8008D8987FF05C09091E8001F
:100C000090FFFCCF03C09EEF9093E800982F907662
:100C100009F0C6C09E892F89188D91110CC08038AB
:100C200029F4809156018093F10002C01092F100E6
:100C30001092F10048C1422F50E0512B913051F4F5
:100C4000811141C14130510509F03DC180915601EA
:100C50008D7F0BC0933061F4811135C14130510556
:100C600009F031C1809156018260809356012BC1F9
:100C7000953041F48091E80080FFFCCF20682093FC
:100C8000E30021C1963009F05FC0EB8CFC8C109220
:100C9000E9001092520110925101123091F5109218
:100CA000500110924F010E94D70499E0BE016F5F7E
:100CB0007F4FDB01E92F1D92EA95E9F799831A83AB
:100CC00091E09E8390EA98879AEF9987209151014D
:100CD00030915201275F3F4F3C832B838D831092CD
:100CE000E9001092520110925101F0925001E092ED
:100CF0004F0149E050E080E00E9439040E94D7048F
:100D0000E2C0F0925001E0924F010E941209DC0112
:100D10001296ED90FC901397E114F10409F4C0C011
:100D2000D701ED91FC910480F581E02DBE016B5E51
:100D30007F4FC7010995009719F00CF0C4C0C7C0D8
:100D4000F701E084F184E8CF973009F4C0C098300F
:100D500021F481E08093F100B6C0993009F0B3C06E
:100D6000837009F0B4C0EDE0F1E081E021E036E30A
:100D70009081992361F08093E9002093EB00919199
:100D80009093EC003093ED008F5F873089F78EE70A
:100D90008093EA001092EA008F8980935C0193C0EF
:100DA0008B8D9C8D1092E90010925201109251018E
:100DB0009093500180934F01898D811156C08E8987
:100DC0009D89913A59F4813209F081C047E050E0A1
:100DD00064E071E080E00E94390475C0913209F04E
:100DE00076C0833289F4888D90E0982F88272F89E8
:100DF000822BA0E0B0E08093000190930101A093CA
:100E00000201B09303015FC0803269F48091E80071
:100E100082FFFCCF67E084E091E00E9460048BEFEA
:100E20008093E80006C0823209F04DC08F8980931C
:100E30000B0180915401882319F0EEEFFAE002C013
:100E4000E0E0F8E08091040190910501A091060195
:100E5000B0910701803B9440A105B10509F07BC02A
:100E600080910B0180FF93C076C00E941209DC01C3
:100E700012960D911C9113970115110541F1D8019E
:100E8000ED91FC910190F081E02DBE016B5E7F4FF2
:100E9000C8010995811117C0F80100851185ECCFB3
:100EA000113009F44EC0133091F48F89882309F46E
:100EB00045C0823081F440E86DE080E191E00E941D
:100EC000FC03882321F08EEF8093E80079C081E253
:100ED0008093EB0075C0813029F440E86BE084E03A
:100EE00091E0EDCF833099F70E941209DC01129650
:100EF000ED90FC9013978E010F5F1F4F6801E11476
:100F0000F10479F0D701ED91FC910680F781E02D95
:100F1000B801C7010995080F111DF701E084F1849C
:100F2000EECFD8011C92F60101900020E9F731972D
:100F3000BF016C197D0940E0C601C1CF6EEE70E0C3
:100F400002C062EF70E06115710509F2FB01449186
:100F500050E080E840CF0FB6F894A89580916000EB
:100F6000886180936000109260000FBEA895EE3FEC
:100F70002AE0F20739F08091FE0A9091FF0A9183EE
:100F80008083A1CF1092FF0A1092FE0A9CCFEE3F01
:100F90008AE0F80731F0808191819093FF0A809375
:100FA000FE0A87E797E7918380839BE088E10FB68D
:100FB000F894A895809360000FBE9093600083CF53
:100FC0006C960FB6F894DEBF0FBECDBFDF91CF9108
:100FD000FF91EF91BF91AF919F918F917F916F9111
:100FE0005F914F913F912F911F910F91FF90EF9043
:100FF000DF90CF900F900FBE0F901F9018953FB7C6
:10100000F89480914B0190914C01A0914D01B091C9
:101010004E0126B5A89B05C02F3F19F00196A11DD2
:10102000B11D3FBFBA2FA92F982F8827820F911D7E
:10103000A11DB11DBC01CD0142E0660F771F881FC5
:10104000991F4A95D1F708951F920F920FB60F92EC
:1010500011242F933F938F939F93AF93BF938091CE
:10106000570190915801A0915901B0915A013091C6
:101070004A0123E0230F2D3720F40196A11DB11D55
:1010800005C026E8230F0296A11DB11D20934A0139
:101090008093570190935801A0935901B0935A013E
:1010A00080914B0190914C01A0914D01B0914E0166
:1010B0000196A11DB11D80934B0190934C01A0930B
:1010C0004D01B0934E01BF91AF919F918F913F9190
:1010D0002F910F900FBE0F901F901895EF92FF92D7
:1010E0000F931F93CF93DF93EC01909149019F5F82
:1010F000292F27702093490190FF02C090E801C07A
:1011000090E021FD9064247009F0906220E1290FA5
:10111000FE013C967E018FE0E80EF11C00E011E03C
:101120006191662331F070E0C8010E94300C6F5F5E
:1011300001C060E0DF0114976C93322F369F030EDD
:1011400030E0311D1124CF010797311103C0EC01AC
:10115000188203C03150EC013883662311F06150CE
:101160006C93EE15FF05E1F6DF91CF911F910F9182
:10117000FF90EF9008950E94C00CFC0180915C01EB
:10118000811103C08FEF9FEF08959FB7F89482E01D
:101190008093E9002091F20030E01216130614F457
:1011A00021E030E02115310559F0289A84E680933A
:1011B0005B018091F10080838091F200882319F017
:1011C0009FBFC90108958BE68093E800F9CFCF92C5
:1011D000DF92EF92FF920E94FF076B017C010E9459
:1011E000FF07DC01CB018C199D09AE09BF09883EC0
:1011F0009340A105B10598F3FF90EF90DF90CF9059
:1012000008952FB7F89483E08093E9009091E80067
:10121000892F807295FF04C09091F20080E4891BB1
:101220002FBF08958091980281110DC082E08093B4
:10123000940284E080939502109297021092960295
:1012400081E08093980284E992E008951F920F92C2
:101250000FB60F9211248F939F938091E10090918C
:10126000E100937F9093E10083FF0FC01092E900AB
:1012700091E09093EB001092EC0092E39093ED00DC
:1012800010925C0198E09093F00082FF20C093E000
:101290009093E9009091F200992319F09AE39093CA
:1012A000E80090915301992339F0909153019150A6
:1012B00090935301992389F190915B01992339F01F
:1012C00090915B01915090935B01992341F184FFD0
:1012D00010C08091E2008E7E81608093E200809158
:1012E000E1008F7E8093E100809155018E7E8061C8
:1012F00011C080FF16C08091E2008E7E80618093D5
:10130000E2008091E1008E7E8093E10080915501A2
:101310008E7E81608093550104C05D98CDCF289862
:10132000D6CF9F918F910F900FBE0F901F90189561
:10133000EDE5F1E01382128288EE93E0A0E0B0E0E8
:1013400084839583A683B78389E391E09183808327
:101350008FEF9FEF95878487E0EAF2E08083128227
:101360001182148613868FEF9FEFDC0187839087AD
:10137000A187B2870895CF93DF9300D01F92CDB796
:10138000DEB7789484B5826084BD84B5816084BD05
:1013900085B5826085BD85B5816085BD80916E0013
:1013A000816080936E001092810080918100826044
:1013B0008093810080918100816080938100809181
:1013C0008000816080938000809191008260809392
:1013D00091008091910081608093910080919000B4
:1013E0008160809390008091C10084608093C100EF
:1013F0008091C10082608093C1008091C1008160B2
:101400008093C1008091C30081608093C30080916C
:10141000C00082608093C0008091C2008160809390
:10142000C20080917A00846080937A0080917A0073
:10143000826080937A0080917A00816080937A0044
:1014400080917A00806880937A0010925C011092FB
:101450005601109255018091D70081608093D7008A
:1014600080EA8093D80089B5806189BD89B58260A2
:1014700089BD09B400FEFDCF0E94E7088091D80025
:101480008F7C80618093D8008091E000807F809382
:10149000E0008091E1008E7E8093E1008DE08093FA
:1014A000E200559A209A5D982898EEEFFFE7859123
:1014B00094918B3F9C4D19F481E0809354018FEF00
:1014C0009FEF90936A01809369018091C00181111F
:1014D00045C01092B2011092B1018FEF8093B50117
:1014E0008093B6018093B7018093B8018093B901CE
:1014F0008093BA0181E08093BB011092BD011092EC
:10150000BC011092B4011092B3018091CE01909170
:10151000CF01892B31F48FEA91E09093CF01809332
:10152000CE01E091AD01F091AE01309721F08FEA4C
:1015300091E0958384838FEA91E09093AE0180934C
:10154000AD011092BF011092BE0187E291E090932D
:10155000B0018093AF0181E08093C001E091AF01C1
:10156000F091B0010480F581E02D8FEA91E00995BA
:1015700084ED91E09093B2018093B10180E490E01A
:101580009093BD018093BC01E091AF01F091B00157
:101590000284F385E02D8FEA91E00995009729F107
:1015A0009C0140E050E060E472E48FE090E00E9433
:1015B000660C722F632F0091A3021091A402209158
:1015C000A5023091A602872F962FDA018017910786
:1015D000A207B30710F4D901C8018093A302909326
:1015E000A402A093A502B093A6020E94C4038F3F59
:1015F0009105D9F700E010E00E94C403A8014C5205
:101600005E4F7A01DA018C930E94C403F701818353
:101610000E94C403D70112968C930D5F1F4F003CAC
:10162000110551F7F090A0028091A3029091A402BD
:10163000A091A502B091A602892B8A2B8B2BE9F0F1
:101640000E94FF070091D0011091D1012091D20199
:101650003091D301DC01CB01801B910BA20BB30BAA
:101660000091A3021091A4022091A5023091A6023C
:1016700080179107A207B307B8F20E94FF07609393
:10168000D0017093D1018093D2019093D301E09166
:10169000AB02F091AC02309759F04091A702509103
:1016A000A8026091A9027091AA028F2D0995F82EC7
:1016B0000091CE011091CF014F2C512C612C712C37
:1016C0000115110509F45FC0F801E4848091A102BD
:1016D0009091A2028436910508F41486D801ED9108
:1016E000FC918280938019821A821B82F11014C0AF
:1016F000F80145855685628173819E012F5F3F4FBA
:10170000C801F4010995D8011C96EC921C97149617
:101710000D911C911597D4CFF80139969E012F5F3A
:101720003F4F690158013CE0A30EB11CDF01139744
:101730003C902191332001F12223F1F0822F90E09F
:10174000A0E0B0E09C01AD012F5F3F4F4F4F5F4FD6
:10175000C301B2010E94200C9B01AC01832D90E0DB
:10176000A0E0B0E0BC01CD016F5F7F4F8F4F9F4F76
:101770000E94200CD6018C93BFEFCB1ADB0AEA152E
:10178000FB05A1F6B5CF8091CC019091CD019C01D4
:101790002F5F3F4F3093CD012093CC0149970CF43C
:1017A00047C08FB7F89400915701109158012091CC
:1017B000590130915A018FBF8091CC019091CD0198
:1017C000E8EEF3E08E9FB0018F9F700D9E9F700D2D
:1017D0001124072E000C880B990BC090C801D090E3
:1017E000C901E090CA01F090CB01A90198012C1920
:1017F0003D094E095F090E94440C3093A2022093D8
:10180000A1021092CD011092CC012FB7F8948091D3
:10181000570190915801A0915901B0915A012FBFE1
:101820008093C8019093C901A093CA01B093CB01E2
:1018300020E030E0232B09F4D8CE0E940000D5CE62
:10184000DB018F939F930E948C0CBF91AF91A29F5D
:10185000800D911DA39F900DB29F900D11240895AE
:1018600097FB072E16F4009407D077FD09D00E944D
:10187000970C07FC05D03EF4909581959F4F0895F5
:10188000709561957F4F0895A1E21A2EAA1BBB1B8C
:10189000FD010DC0AA1FBB1FEE1FFF1FA217B3073C
:1018A000E407F50720F0A21BB30BE40BF50B661F52
:1018B000771F881F991F1A9469F760957095809516
:1018C00090959B01AC01BD01CF010895052E97FBBA
:1018D0001EF400940E947D0C57FD07D00E94440C1A
:1018E00007FC03D04EF40C947D0C50954095309538
:1018F00021953F4F4F4F5F4F08959095809570957C
:1019000061957F4F8F4F9F4F08950E94B10CB7FF95
:101910000895821B930B08950E94B10CA59F900D12
:10192000B49F900DA49F800D911D11240895AA1BB2
:10193000BB1B51E107C0AA1FBB1FA617B70710F0BA
:10194000A61BB70B881F991F5A95A9F780959095EC
:10195000BC01CD010895EE0FFF1F0590F491E02D1D
:101960000994A29FB001B39FC001A39F700D811D78
:101970001124911DB29F700D811D1124911D089598
:0E19800081E090E0F8940C94C50CF894FFCF31
:10198E00FFFFFFFF00E100000000000000C18081AA
:10199E0000000000000000BB08BB08BB08C600C268
:1019AE0000BF00000000003D038003BD00C600C262
:1019BE0000BA00EA0000000000980409058905AE8F
:0819CE0004B904B1058D050008
:00000001FF
